S01900004C43442D4775657373696E672D47616D652E737265631F
S11300000C944A000C9467000C9467000C946700ED
S11300100C947B040C94A2040C9467000C94DF03EE
S11300200C9467000C9406040C942D040C94540452
S11300300C9467000C9467000C9467000C946700A0
S11300400C9467000C9467000C9467000C94670090
S11300500C9467004701650149014B014D014F01B3
S1130060510153015501570159015B015D015F01C4
S113007061016301590663066D0677068B068106E6
S113008095069F06C406CE06D806E206F606EC06DA
S113009000070A0711241FBECFE5D8E0DEBFCDBF9D
S11300A010E0A0E6B0E0EEE8F2E102C005900D92A7
S11300B0AA3CB107D9F720E0AAECB0E001C01D9238
S11300C0A63DB207E1F70E9420030C9445090C9465
S11300D00000CF93DF9300D000D01F92CDB7DEB7DE
S11300E085E0E4E6F0E0DE01119601900D928A9538
S11300F0E1F7CE0101960E94C90460E082E00E940B
S1130100270363E070E087E090EF0E942C021092D6
S1130110D50082E00E9436010E94D2086FE070E0B0
S11301200E9458088F5F8093D0000F900F900F901B
S11301300F900F90DF91CF9108950E94A5018093B5
S1130140D2008D3091F09091D500990F292F220F74
S1130150220F920F890F8093D50067E081E00E94FF
S1130160C1028091D5000E94DA02089581E00E94C4
S1130170C80160E080E00E94C10289E690E00E942C
S1130180AE0260E081E00E94C1028AE790E00E9432
S1130190AE02089560E070E08AE794E40E941407D8
S11301A08091D2008D3009F05BC067E081E00E944D
S11301B0C1028091D5000E94DA028091D50081119C
S11301C014C081E00E94C80160E080E00E94C10286
S11301D082E890E00E94AE0260E081E00E94C102E9
S11301E08DE890E00E94AE0231C08031A0F081E041
S11301F00E94C80160E080E00E94C1028DE990E0A5
S11302000E94AE0260E081E00E94C10287EA90E0B1
S11302100E94AE021BC09091D00089130CC081E0F3
S11302200E94C80160E080E00E94C10288EB90E077
S11302300E94AE020BC081E00E94C80160E080E031
S11302400E94C10280EC90E00E94AE021092D500A0
S113025060E070E08AE794E40E9414070E94B6000C
S113026008950E949D000E94CA0008958093D100C1
S11302706FE00E9427030895482F50E0FA01319758
S1130280E031F10518F5E65DFF4F0C946C0887E04A
S1130290089581E008958DE0089588E0089585E04B
S11302A0089582E0089580E0089589E0089586E045
S11302B0089583E008958DE308958FE208958AE216
S11302C008958DE208958BE2089584E00895909155
S11302D0D100913099F028F09230E9F0933041F157
S11302E0089520E130E0A90102C0440F551F8A950A
S11302F0E2F7CA014ABB80958BBB089520E130E048
S1130300A90102C0440F551F8A95E2F7CA0147BBF1
S1130310809588BB089520E130E0A90102C0440F14
S1130320551F8A95E2F7CA0144BB809585BB0895A1
S113033020E130E0A90102C0440F551F8A95E2F77D
S1130340CA0141BB809582BB0895CF93C0E01BC016
S11303508C2F0E94670190E013C023B330E0092E74
S113036002C0359527950A94E2F720FD08C0990F3D
S1130370990F892F8C0F8F5F0E943C0107C09F5FEC
S1130380943058F3CF5FC43018F3E0CFCF91089581
S1130390CF93C82F60E08091D3000E94730361E083
S11303A08091D3000E94730360E070E080E89FE3D3
S11303B00E94140762E08091D3000E94AB0360E0C6
S11303C070E080E89FE30E94140760EF8091D400FE
S11303D00E9457036C2F607F8091D4000E943F03DA
S11303E060E070E080E89FE30E94140762E080917F
S11303F0D3000E94730360E070E080E89FE30E94F2
S1130400140762E08091D3000E94AB0360E070E0C7
S113041080E89FE30E94140760EF8091D4000E945B
S1130420570380E1C89FB00111248091D4000E9439
S11304303F0360E070E080E89FE30E94140762E0FD
S11304408091D3000E94730360E070E080E89FE332
S11304500E941407CF910895CF93262FC92F60933C
S1130460D3007093D400682F822F0E9427036C2F2F
S11304708091D4000E94270382E00E94C80188E290
S11304800E94C8018CE00E94C80181E00E94C8015A
S1130490CF910895CF93C82F60E08091D3000E943C
S11304A0AB0361E08091D3000E94730360E070E0CD
S11304B080E89FE30E94140762E08091D3000E94C9
S11304C0AB0360E070E080E89FE30E94140760EFF4
S11304D08091D4000E9457036C2F607F8091D400D8
S11304E00E943F0360E070E080E89FE30E941407ED
S11304F062E08091D3000E94730360E070E080E8C2
S11305009FE30E94140762E08091D3000E94AB0332
S113051060E070E080E89FE30E94140760EF809140
S1130520D4000E94570380E1C89FB0011124809138
S1130530D4000E943F0360E070E080E89FE30E94E3
S1130540140762E08091D3000E94730360E070E0BE
S113055080E89FE30E941407CF9108950F931F939F
S1130560CF938C01C0E003C00E944A02CF5FF80120
S1130570EC0FF11D80818111F7CFCF911F910F9165
S11305800895882329F0813011F060E001C0605C97
S1130590862F80680E94C8010895FC01DB019C91AC
S11305A08081982790832C9192279C93808198270F
S11305B090830895CF938A30E8F4E8ECF0E0805D0E
S11305C08083118237C0E32FF0E0E853FF4F9DECA6
S11305D0899F912D1124969596959695492F440FB0
S11305E0242F220F220F240F821B805D8083892FEA
S11305F03F5F01C030E08A3030F7E32FF0E0E8538A
S1130600FF4F805D80833F5FE32FF0E0E853FF4FAF
S11306101082C0E00DC08C2F90E061E070E0681B98
S1130620790B68537F4F88539F4F0E94CD02CF5F51
S1130630CC2389F388EC90E00E94AE02CF91089518
S11306400E9469000E94B6000E943101FDCF8130F2
S113065051F028F0823059F0833069F008958AB35C
S1130660682B6ABB089587B3682B67BB089584B36E
S1130670682B64BB089581B3682B61BB08958130F6
S113068051F028F0823059F0833069F008958BB32B
S1130690682B6BBB08958BB3682B6BBB08958BB32E
S11306A0682B6BBB08958BB3682B6BBB08958130AB
S11306B059F028F0823069F0833081F008958BB3CB
S11306C0609568236BBB089588B36095682368BB05
S11306D0089585B36095682365BB089582B36095DA
S11306E0682362BB0895813091F028F08230D9F0FC
S11306F0833029F108952BB381E090E002C0880F84
S1130700991F6A95E2F7809582238BBB089528B3DD
S113071081E090E002C0880F991F6A95E2F7809506
S1130720822388BB089525B381E090E002C0880F3E
S1130730991F6A95E2F78095822385BB089522B3B9
S113074081E090E002C0880F991F6A95E2F78095D6
S1130750822382BB0895813089F028F08230C9F069
S1130760833011F108952BB381E090E002C0880F2B
S1130770991F6A95E2F7822B8BBB089528B381E019
S113078090E002C0880F991F6A95E2F7822B88BB1C
S1130790089525B381E090E002C0880F991F6A95FF
S11307A0E2F7822B85BB089522B381E090E002C07A
S11307B0880F991F6A95E2F7822B82BB08951F92D6
S11307C00F920FB60F9211242F933F934F935F9381
S11307D06F937F938F939F93AF93BF93EF93FF9305
S11307E0E091CC00F091CD000995FF91EF91BF917C
S11307F0AF919F918F917F916F915F914F913F91B5
S11308002F910F900FBE0F901F9018951F920F926B
S11308100FB60F9211242F933F934F935F936F93CF
S11308207F938F939F93AF93BF93EF93FF93E09145
S1130830CC00F091CD000995FF91EF91BF91AF915C
S11308409F918F917F916F915F914F913F912F91E4
S11308500F900FBE0F901F9018951F920F920FB616
S11308600F9211242F933F934F935F936F937F9332
S11308708F939F93AF93BF93EF93FF93E091CE0039
S1130880F091CF000995FF91EF91BF91AF919F91A6
S11308908F917F916F915F914F913F912F910F9025
S11308A00FBE0F901F9018951F920F920FB60F92C4
S11308B011242F933F934F935F936F937F938F9361
S11308C09F93AF93BF93EF93FF93E091CE00F0918A
S11308D0CF000995FF91EF91BF91AF919F918F91B7
S11308E07F916F915F914F913F912F910F900FBE28
S11308F00F901F9018951F920F920FB60F9211240C
S11309002F933F934F935F936F937F938F939F9313
S1130910AF93BF93EF93FF93E091CA00F091CB00A4
S11309200995FF91EF91BF91AF919F918F917F9125
S11309306F915F914F913F912F910F900FBE0F9048
S11309401F9018951F920F920FB60F9211242F9398
S11309503F934F935F936F937F938F939F93AF9343
S1130960BF93EF93FF93E091CA00F091CB000995F8
S1130970FF91EF91BF91AF919F918F917F916F9173
S11309805F914F913F912F910F900FBE0F901F9049
S11309901895FC0180818111B3C08181811154C0FB
S11309A012BE89B7816089BF83B7806883BF8281A3
S11309B0823011F128F4882359F0813099F0089598
S11309C0863071F18730B1F1853009F02CC21EC038
S11309D083B78E7F83BF83B78D7F83BF83B78B7FBE
S11309E083BF089583B7816083BF83B78D7F83BF3F
S11309F083B78B7F83BF089583B78E7F83BF83B70D
S1130A00826083BF83B78B7F83BF089583B7816080
S1130A1083BF83B7826083BF83B78B7F83BF08950F
S1130A2083B78E7F83BF83B78D7F83BF83B7846093
S1130A3083BF089583B7816083BF83B78D7F83BFEE
S1130A4083B7846083BF0895813009F0ECC112BE7E
S1130A5089B7826089BF83B7886083BF83B78068A2
S1130A6083BF83818CBF8281823011F128F4882373
S1130A7059F0813099F00895863071F18730B1F1E1
S1130A80853009F0D0C11EC083B78E7F83BF83B782
S1130A908D7F83BF83B78B7F83BF089583B78160C6
S1130AA083BF83B78D7F83BF83B78B7F83BF089555
S1130AB083B78E7F83BF83B7826083BF83B78B7F07
S1130AC083BF089583B7816083BF83B7826083BF88
S1130AD083B78B7F83BF089583B78E7F83BF83B72C
S1130AE08D7F83BF83B7846083BF089583B781609C
S1130AF083BF83B78D7F83BF83B7846083BF08952B
S1130B00813009F0BDC08181811158C01DBC1CBC5D
S1130B1089B7846089BF8FB584608FBD8FB58860C5
S1130B208FBD8281823011F128F4882359F08130FD
S1130B3099F00895863071F18730B1F1853009F06C
S1130B4072C11EC08EB58E7F8EBD8EB58D7F8EBD5B
S1130B508EB58B7F8EBD08958EB581608EBD8EB5AA
S1130B608D7F8EBD8EB58B7F8EBD08958EB58E7FA5
S1130B708EBD8EB582608EBD8EB58B7F8EBD089581
S1130B808EB581608EBD8EB582608EBD8EB58B7F35
S1130B908EBD08958EB58E7F8EBD8EB58D7F8EBD34
S1130BA08EB584608EBD08958EB581608EBD8EB580
S1130BB08D7F8EBD8EB584608EBD0895813009F021
S1130BC032C11DBC1CBC89B7806189BF8FB58460EC
S1130BD08FBD8FB588608FBD84818BBD83818ABDB5
S1130BE08EB588608EBD8281823011F128F488230D
S1130BF059F0813099F00895863071F18730B1F160
S1130C00853009F010C11EC08EB58E7F8EBD8EB5A5
S1130C108D7F8EBD8EB58B7F8EBD08958EB5816020
S1130C208EBD8EB58D7F8EBD8EB58B7F8EBD0895A6
S1130C308EB58E7F8EBD8EB582608EBD8EB58B7F58
S1130C408EBD08958EB581608EBD8EB582608EBDD9
S1130C508EB58B7F8EBD08958EB58E7F8EBD8EB57D
S1130C608D7F8EBD8EB584608EBD08958EB58160F6
S1130C708EBD8EB58D7F8EBD8EB584608EBD08957C
S1130C80823009F0D0C08181811163C014BC89B75E
S1130C90806489BF85B5806885BDE2818E2F90E030
S1130CA08830910508F0BFC0FC01E65CFF4F0C944E
S1130CB06C0883B78E7F83BF83B78D7F83BF83B771
S1130CC08B7F83BF089583B7816083BF83B78D7F94
S1130CD083BF83B78B7F83BF089583B78E7F83BF22
S1130CE083B7826083BF83B78B7F83BF089583B745
S1130CF0816083BF83B7826083BF83B78B7F83BFE9
S1130D00089583B78E7F83BF83B78D7F83BF83B7F7
S1130D10846083BF089583B7816083BF83B78D7F69
S1130D2083BF83B7846083BF089583B78E7F83BFF7
S1130D3083B7826083BF83B7846083BF089583B71A
S1130D40816083BF83B7826083BF83B7846083BFBE
S1130D500895813009F067C014BC89B7806889BFE1
S1130D6085B5886085BD85B5806885BD838183BD73
S1130D70E2818E2F90E08830910508F054C0FC0188
S1130D80EE5BFF4F0C946C0883B78E7F83BF83B7F1
S1130D908D7F83BF83B78B7F83BF089583B78160C3
S1130DA083BF83B78D7F83BF83B78B7F83BF089552
S1130DB083B78E7F83BF83B7826083BF83B78B7F04
S1130DC083BF089583B7816083BF83B7826083BF85
S1130DD083B78B7F83BF089583B78E7F83BF83B729
S1130DE08D7F83BF83B7846083BF089583B7816099
S1130DF083BF83B78D7F83BF83B7846083BF089528
S1130E0083B78E7F83BF83B7826083BF83B78460D9
S1130E1083BF089583B7816083BF83B7826083BF34
S1130E2083B7846083BF08958F929F92AF92BF92DD
S1130E30FF920F931F93CF93DF9300D000D01F92A4
S1130E40CDB7DEB74B015C01CE01019625E0FC0174
S1130E5011922A95E9F727E02B830E94C904F12C0B
S1130E600BC008B600FE08C0F39488B7816088BF41
S1130E70CE0101960E94C9040F2D10E020E030E05D
S1130E804AE754E4C501B4010E9466072DEB37E339
S1130E9046E85AE30E94660720E030E04FE753E457
S1130EA00E9466070E94D80706171707D1F60F900D
S1130EB00F900F900F900F90DF91CF911F910F9192
S1130EC0FF90BF90AF909F908F9008950E947A07F3
S1130ED00C941E080E94170858F00E94100840F055
S1130EE029F45F3F29F00C94070851110C9452081F
S1130EF00C940D080E942F0868F39923B1F355232D
S1130F0091F3951B550BBB27AA2762177307840718
S1130F1038F09F5F5F4F220F331F441FAA1FA9F3AE
S1130F2035D00E2E3AF0E0E832D091505040E6959C
S1130F30001CCAF72BD0FE2F29D0660F771F881FFD
S1130F40BB1F261737074807AB07B0E809F0BB0BF0
S1130F50802DBF01FF2793585F4F3AF09E3F510504
S1130F6078F00C9407080C9452085F3FE4F3983E21
S1130F70D4F3869577956795B795F7959F5FC9F7ED
S1130F80880F911D9695879597F90895E1E0660F6E
S1130F90771F881FBB1F621773078407BA0720F0E7
S1130FA0621B730B840BBA0BEE1F88F7E095089550
S1130FB00E94370888F09F5798F0B92F9927B751A6
S1130FC0B0F0E1F0660F771F881F991F1AF0BA95E9
S1130FD0C9F714C0B13091F00E945108B1E00895EE
S1130FE00C945108672F782F8827B85F39F0B93FE0
S1130FF0CCF3869577956795B395D9F73EF490959C
S11310008095709561957F4F8F4F9F4F089597F905
S11310109F6780E870E060E008959FEF80EC08959A
S113102000240A94161617061806090608950024C3
S11310300A9412161306140605060895092E03943D
S1131040000C11F4882352F0BB0F40F4BF2B11F4B1
S113105060FF04C06F5F7F4F8F4F9F4F089557FD10
S11310609058440F551F59F05F3F71F04795880F12
S113107097FB991F61F09F3F79F0879508951216A9
S113108013061406551FF2CF4695F1DF08C0161655
S113109017061806991FF1CF869571056105089406
S11310A00895E894BB2766277727CB0197F908951D
S11310B097FB072E16F4009407D077FD09D00E9401
S11310C0720807FC05D03EF4909581959F4F0895D2
S11310D0709561957F4F0895EE0FFF1F0590F49171
S11310E0E02D0994AA1BBB1B51E107C0AA1FBB1F1B
S11310F0A617B70710F0A61BB70B881F991F5A95A0
S1131100A9F780959095BC01CD0108958F929F9287
S1131110AF92BF92CF92DF92EF92FF92CF93DF9381
S1131120EC01688179818A819B8161157105810552
S1131130910521F464E279ED8BE597E02DE133EF3D
S113114041E050E00E94E20849015A019B01AC01D0
S1131150A7EAB1E40E9401096B017C01ACEEB4EF93
S1131160A50194010E940F09DC01CB018C0D9D1D8A
S1131170AE1DBF1DB7FF03C00197A109B048888306
S11311809983AA83BB839F77DF91CF91FF90EF90E0
S1131190DF90CF90BF90AF909F908F9008950E9462
S11311A08608089580E690E00E9486080895A0E0ED
S11311B0B0E08093600090936100A0936200B093CC
S11311C063000895052E97FB1EF400940E94F9080D
S11311D057FD07D00E94140907FC03D04EF40C9469
S11311E0F90850954095309521953F4F4F4F5F4FEB
S11311F0089590958095709561957F4F8F4F9F4F7F
S113120008950E943609A59F900DB49F900DA49F48
S1131210800D911D11240895B7FF0C9401090E94BB
S11312200109821B930B0895A1E21A2EAA1BBB1B72
S1131230FD010DC0AA1FBB1FEE1FFF1FA217B3079E
S1131240E407F50720F0A21BB30BE40BF50B661FB4
S1131250771F881F991F1A9469F760957095809578
S113126090959B01AC01BD01CF010895A29FB001EF
S1131270B39FC001A39F700D811D1124911DB29FC6
S1111280700D811D1124911D0895F894FFCF67
S113128E01000000010107420F706C656173652057
S113129E677565737320746865006E756D6265722B
S11312AE3A00594F55204449444E27540043484F61
S11312BE4F53452041204E554D424552005448450A
S11312CE2056414C4944004E554D422057495448EE
S11312DE494E20313A313500594F5520574F4E0063
S10D12EE594F55204C4F53003000B7
S9030000FC
