S01900004C43442D4775657373696E672D47616D652E737265631F
S11300000C944A000C9467000C9467000C946700ED
S11300100C947F040C94A6040C9467000C94E303E2
S11300200C9467000C940A040C9431040C94580446
S11300300C9467000C9467000C9467000C946700A0
S11300400C9467000C9467000C9467000C94670090
S11300500C946700430161014501470149014B01CB
S11300604D014F01510153015501570159015B01E4
S11300705D015F015D06670671067B068F068506D6
S11300809906A306C806D206DC06E606FA06F006BA
S113009004070E0711241FBECFE5D8E0DEBFCDBF95
S11300A010E0A0E6B0E0E6E9F2E102C005900D92AE
S11300B0AA3CB107D9F720E0AAECB0E001C01D9238
S11300C0A63DB207E1F70E9424030C9449090C945D
S11300D00000CF93DF9300D000D01F92CDB7DEB7DE
S11300E085E0E4E6F0E0DE01119601900D928A9538
S11300F0E1F7CE0101960E94210363E070E087E0FE
S113010090EF0E94280282E00E9432011092D500F2
S11301100E94D6086FE070E00E945C088F5F8093B5
S1130120D0000F900F900F900F900F90DF91CF9110
S113013008950E94A1018093D2008D3091F0909196
S1130140D500990F292F220F220F920F890F809328
S1130150D50067E081E00E94BD028091D5000E9435
S1130160D602089581E00E94C40160E080E00E940C
S1130170BD0289E690E00E94AA0260E081E00E944C
S1130180BD028AE790E00E94AA02089560E070E050
S11301908AE794E40E9418078091D2008D3009F018
S11301A05BC067E081E00E94BD028091D5000E949F
S11301B0D6028091D500811114C081E00E94C4014F
S11301C060E080E00E94BD0282E890E00E94AA0202
S11301D060E081E00E94BD028DE890E00E94AA02E6
S11301E031C08031A0F081E00E94C40160E080E071
S11301F00E94BD028DE990E00E94AA0260E081E0C5
S11302000E94BD0287EA90E00E94AA021BC090915E
S1130210D00089130CC081E00E94C40160E080E03A
S11302200E94BD0288EB90E00E94AA020BC081E00C
S11302300E94C40160E080E00E94BD0280EC90E076
S11302400E94AA021092D50060E070E08AE794E46C
S11302500E9418070E94B20008950E9499000E940B
S1130260C60008958093D1006FE00E942B03089587
S1130270482F50E0FA013197E031F10518F5E65DB9
S1130280FF4F0C94700887E0089581E008958DE095
S1130290089588E0089585E0089582E0089580E057
S11302A0089589E0089586E0089583E008958DE334
S11302B008958FE208958AE208958DE208958BE20D
S11302C0089584E008959091D100913099F028F038
S11302D09230E9F0933041F1089520E130E0A90132
S11302E002C0440F551F8A95E2F7CA014ABB8095A4
S11302F08BBB089520E130E0A90102C0440F551FD3
S11303008A95E2F7CA0147BB809588BB089520E12E
S113031030E0A90102C0440F551F8A95E2F7CA01D3
S113032044BB809585BB089520E130E0A90102C05B
S1130330440F551F8A95E2F7CA0141BB809582BBE1
S11303400895CF93C0E01BC08C2F0E94630190E0FE
S113035013C023B330E0092E02C0359527950A94C3
S1130360E2F720FD08C0990F990F892F8C0F8F5F3A
S11303700E94380107C09F5F943058F3CF5FC430A8
S113038018F3E0CFCF910895CF93C82F60E0809108
S1130390D3000E94770361E08091D3000E94770329
S11303A060E070E080E89FE30E94180762E08091BB
S11303B0D3000E94AF0360E070E080E89FE30E94F6
S11303C0180760EF8091D4000E945B036C2F607F5C
S11303D08091D4000E94430360E070E080E89FE3D2
S11303E00E94180762E08091D3000E94770360E0C6
S11303F070E080E89FE30E94180762E08091D300D8
S11304000E94AF0360E070E080E89FE30E94180759
S113041060EF8091D4000E945B0380E1C89FB0012B
S113042011248091D4000E94430360E070E080E8CE
S11304309FE30E94180762E08091D3000E94770333
S113044060E070E080E89FE30E941807CF91089570
S1130450CF93262FC92F6093D3007093D400682FB5
S1130460822F0E942B036C2F8091D4000E942B03B7
S113047082E00E94C40188E20E94C4018CE00E94D0
S1130480C40181E00E94C401CF910895CF93C82F85
S113049060E08091D3000E94AF0361E08091D300BB
S11304A00E94770360E070E080E89FE30E941807F1
S11304B062E08091D3000E94AF0360E070E080E8C6
S11304C09FE30E94180760EF8091D4000E945B03B1
S11304D06C2F607F8091D4000E94430360E070E041
S11304E080E89FE30E94180762E08091D3000E9495
S11304F0770360E070E080E89FE30E94180762E001
S11305008091D3000E94AF0360E070E080E89FE335
S11305100E94180760EF8091D4000E945B0380E181
S1130520C89FB00111248091D4000E94430360E06D
S113053070E080E89FE30E94180762E08091D30096
S11305400E94770360E070E080E89FE30E94180750
S1130550CF9108950F931F93CF938C01C0E003C0F4
S11305600E944602CF5FF801EC0FF11D80818111DA
S1130570F7CFCF911F910F910895882329F08130EF
S113058011F060E001C0605C862F80680E94C401A5
S11305900895FC01DB019C918081982790832C9124
S11305A092279C938081982790830895CF93DF931B
S11305B08A30E8F4E8ECF0E0805D808311823AC090
S11305C0E22FF0E0E853FF4F9DEC899F912D112419
S11305D0969596959695492F440F342F330F330FE4
S11305E0340F831B805D8083892F2F5F01C020E03F
S11305F08A3030F7E22FF0E0E853FF4F805D8083CC
S1130600C1E0C20FEC2FF0E0E853FF4F1082D0E0BE
S11306100DC06C2F70E08D2F90E0681B790B69532F
S11306207F4F88539F4F0E94C902DF5F8C2F8695AE
S1130630D81778F388EC90E00E94AA02DF91CF915A
S113064008950E94CD0408950E9469000E94B2009A
S11306500E942D01FDCF813051F028F0823059F0F5
S1130660833069F008958AB3682B6ABB089587B311
S1130670682B67BB089584B3682B64BB089581B36A
S1130680682B61BB0895813051F028F0823059F015
S1130690833069F008958BB3682B6BBB08958BB3DB
S11306A0682B6BBB08958BB3682B6BBB08958BB31E
S11306B0682B6BBB0895813059F028F0823069F0C3
S11306C0833081F008958BB3609568236BBB0895E4
S11306D088B36095682368BB089585B360956823E3
S11306E065BB089582B36095682362BB0895813029
S11306F091F028F08230D9F0833029F108952BB39A
S113070081E090E002C0880F991F6A95E2F7809516
S113071082238BBB089528B381E090E002C0880F48
S1130720991F6A95E2F78095822388BB089525B3C3
S113073081E090E002C0880F991F6A95E2F78095E6
S1130740822385BB089522B381E090E002C0880F24
S1130750991F6A95E2F78095822382BB08958130C0
S113076089F028F08230C9F0833011F108952BB359
S113077081E090E002C0880F991F6A95E2F7822B0E
S11307808BBB089528B381E090E002C0880F991FC5
S11307906A95E2F7822B88BB089525B381E090E047
S11307A002C0880F991F6A95E2F7822B85BB0895D2
S11307B022B381E090E002C0880F991F6A95E2F7A6
S11307C0822B82BB08951F920F920FB60F921124B1
S11307D02F933F934F935F936F937F938F939F9345
S11307E0AF93BF93EF93FF93E091CC00F091CD00D2
S11307F00995FF91EF91BF91AF919F918F917F9157
S11308006F915F914F913F912F910F900FBE0F9079
S11308101F9018951F920F920FB60F9211242F93C9
S11308203F934F935F936F937F938F939F93AF9374
S1130830BF93EF93FF93E091CC00F091CD00099525
S1130840FF91EF91BF91AF919F918F917F916F91A4
S11308505F914F913F912F910F900FBE0F901F907A
S113086018951F920F920FB60F9211242F933F9356
S11308704F935F936F937F938F939F93AF93BF93A4
S1130880EF93FF93E091CE00F091CF000995FF9193
S1130890EF91BF91AF919F918F917F916F915F91F4
S11308A04F913F912F910F900FBE0F901F9018956D
S11308B01F920F920FB60F9211242F933F934F93D1
S11308C05F936F937F938F939F93AF93BF93EF93B4
S11308D0FF93E091CE00F091CF000995FF91EF9145
S11308E0BF91AF919F918F917F916F915F914F9144
S11308F03F912F910F900FBE0F901F9018951F924C
S11309000F920FB60F9211242F933F934F935F933F
S11309106F937F938F939F93AF93BF93EF93FF93C3
S1130920E091CA00F091CB000995FF91EF91BF913E
S1130930AF919F918F917F916F915F914F913F9173
S11309402F910F900FBE0F901F9018951F920F922A
S11309500FB60F9211242F933F934F935F936F938E
S11309607F938F939F93AF93BF93EF93FF93E09104
S1130970CA00F091CB000995FF91EF91BF91AF911F
S11309809F918F917F916F915F914F913F912F91A3
S11309900F900FBE0F901F901895FC01808181115C
S11309A0B3C08181811154C012BE89B7816089BFEF
S11309B083B7806883BF8281823011F128F4882351
S11309C059F0813099F00895863071F18730B1F192
S11309D0853009F02CC21EC083B78E7F83BF83B7D6
S11309E08D7F83BF83B78B7F83BF089583B7816077
S11309F083BF83B78D7F83BF83B78B7F83BF089506
S1130A0083B78E7F83BF83B7826083BF83B78B7FB7
S1130A1083BF089583B7816083BF83B7826083BF38
S1130A2083B78B7F83BF089583B78E7F83BF83B7DC
S1130A308D7F83BF83B7846083BF089583B781604C
S1130A4083BF83B78D7F83BF83B7846083BF0895DB
S1130A50813009F0ECC112BE89B7826089BF83B7C7
S1130A60886083BF83B7806883BF83818CBF8281A2
S1130A70823011F128F4882359F0813099F00895D7
S1130A80863071F18730B1F1853009F0D0C11EC0D4
S1130A9083B78E7F83BF83B78D7F83BF83B78B7FFD
S1130AA083BF089583B7816083BF83B78D7F83BF7E
S1130AB083B78B7F83BF089583B78E7F83BF83B74C
S1130AC0826083BF83B78B7F83BF089583B78160C0
S1130AD083BF83B7826083BF83B78B7F83BF08954F
S1130AE083B78E7F83BF83B78D7F83BF83B78460D3
S1130AF083BF089583B7816083BF83B78D7F83BF2E
S1130B0083B7846083BF0895813009F0BDC08181BB
S1130B10811158C01DBC1CBC89B7846089BF8FB5C6
S1130B2084608FBD8FB588608FBD8281823011F162
S1130B3028F4882359F0813099F00895863071F1B2
S1130B408730B1F1853009F072C11EC08EB58E7F39
S1130B508EBD8EB58D7F8EBD8EB58B7F8EBD089577
S1130B608EB581608EBD8EB58D7F8EBD8EB58B7F2B
S1130B708EBD08958EB58E7F8EBD8EB582608EBD7E
S1130B808EB58B7F8EBD08958EB581608EBD8EB57A
S1130B9082608EBD8EB58B7F8EBD08958EB58E7F9F
S1130BA08EBD8EB58D7F8EBD8EB584608EBD08954D
S1130BB08EB581608EBD8EB58D7F8EBD8EB5846001
S1130BC08EBD0895813009F032C11DBC1CBC89B7AB
S1130BD0806189BF8FB584608FBD8FB588608FBDFC
S1130BE084818BBD83818ABD8EB588608EBD8281F0
S1130BF0823011F128F4882359F0813099F0089556
S1130C00863071F18730B1F1853009F010C11EC012
S1130C108EB58E7F8EBD8EB58D7F8EBD8EB58B7F4E
S1130C208EBD08958EB581608EBD8EB58D7F8EBDCF
S1130C308EB58B7F8EBD08958EB58E7F8EBD8EB59D
S1130C4082608EBD8EB58B7F8EBD08958EB581601A
S1130C508EBD8EB582608EBD8EB58B7F8EBD0895A0
S1130C608EB58E7F8EBD8EB58D7F8EBD8EB5846024
S1130C708EBD08958EB581608EBD8EB58D7F8EBD7F
S1130C808EB584608EBD0895823009F0D0C0818114
S1130C90811163C014BC89B7806489BF85B580683D
S1130CA085BDE2818E2F90E08830910508F0BFC0A9
S1130CB0FC01E65CFF4F0C94700883B78E7F83BF02
S1130CC083B78D7F83BF83B78B7F83BF089583B73B
S1130CD0816083BF83B78D7F83BF83B78B7F83BFDF
S1130CE0089583B78E7F83BF83B7826083BF83B742
S1130CF08B7F83BF089583B7816083BF83B782608E
S1130D0083BF83B78B7F83BF089583B78E7F83BFF1
S1130D1083B78D7F83BF83B7846083BF089583B710
S1130D20816083BF83B78D7F83BF83B7846083BFB4
S1130D30089583B78E7F83BF83B7826083BF83B7F1
S1130D40846083BF089583B7816083BF83B7826063
S1130D5083BF83B7846083BF0895813009F067C07F
S1130D6014BC89B7806889BF85B5886085BD85B5A1
S1130D70806885BD838183BDE2818E2F90E08830B9
S1130D80910508F054C0FC01EE5BFF4F0C94700811
S1130D9083B78E7F83BF83B78D7F83BF83B78B7FFA
S1130DA083BF089583B7816083BF83B78D7F83BF7B
S1130DB083B78B7F83BF089583B78E7F83BF83B749
S1130DC0826083BF83B78B7F83BF089583B78160BD
S1130DD083BF83B7826083BF83B78B7F83BF08954C
S1130DE083B78E7F83BF83B78D7F83BF83B78460D0
S1130DF083BF089583B7816083BF83B78D7F83BF2B
S1130E0083B7846083BF089583B78E7F83BF83B71E
S1130E10826083BF83B7846083BF089583B7816092
S1130E2083BF83B7826083BF83B7846083BF089521
S1130E308F929F92AF92BF92FF920F931F93CF9383
S1130E40DF9300D000D01F92CDB7DEB74B015C0119
S1130E50CE01019625E0FC0111922A95E9F727E0DD
S1130E602B830E94CD04F12C0BC008B600FE08C0F1
S1130E70F39488B7816088BFCE0101960E94CD04A7
S1130E800F2D10E020E030E04AE754E4C501B4013E
S1130E900E946A072DEB37E346E85AE30E946A078B
S1130EA020E030E04FE753E40E946A070E94DC0729
S1130EB006171707D1F60F900F900F900F900F9011
S1130EC0DF91CF911F910F91FF90BF90AF909F90B2
S1130ED08F9008950E947E070C9422080E941B089C
S1130EE058F00E94140840F029F45F3F29F00C9454
S1130EF00B0851110C9456080C9411080E943308E5
S1130F0068F39923B1F3552391F3951B550BBB2734
S1130F10AA2762177307840738F09F5F5F4F220F79
S1130F20331F441FAA1FA9F335D00E2E3AF0E0E870
S1130F3032D091505040E695001CCAF72BD0FE2FBA
S1130F4029D0660F771F881FBB1F2617370748074E
S1130F50AB07B0E809F0BB0B802DBF01FF27935806
S1130F605F4F3AF09E3F510578F00C940B080C94B7
S1130F7056085F3FE4F3983ED4F3869577956795DA
S1130F80B795F7959F5FC9F7880F911D969587953B
S1130F9097F90895E1E0660F771F881FBB1F62175A
S1130FA073078407BA0720F0621B730B840BBA0B18
S1130FB0EE1F88F7E09508950E943B0888F09F573C
S1130FC098F0B92F9927B751B0F0E1F0660F771F69
S1130FD0881F991F1AF0BA95C9F714C0B13091F05F
S1130FE00E945508B1E008950C945508672F782F96
S1130FF08827B85F39F0B93FCCF386957795679524
S1131000B395D9F73EF490958095709561957F4F8F
S11310108F4F9F4F089597F99F6780E870E060E0D5
S113102008959FEF80EC089500240A94161617067D
S113103018060906089500240A94121613061406C5
S113104005060895092E0394000C11F4882352F028
S1131050BB0F40F4BF2B11F460FF04C06F5F7F4FE0
S11310608F4F9F4F089557FD9058440F551F59F0C7
S11310705F3F71F04795880F97FB991F61F09F3F81
S113108079F087950895121613061406551FF2CFAA
S11310904695F1DF08C0161617061806991FF1CFFA
S11310A086957105610508940895E894BB27662721
S11310B07727CB0197F9089597FB072E16F4009430
S11310C007D077FD09D00E94760807FC05D03EF4CE
S11310D0909581959F4F0895709561957F4F0895E0
S11310E0EE0FFF1F0590F491E02D0994AA1BBB1B82
S11310F051E107C0AA1FBB1FA617B70710F0A61B14
S1131100B70B881F991F5A95A9F780959095BC0134
S1131110CD0108958F929F92AF92BF92CF92DF92AA
S1131120EF92FF92CF93DF93EC01688179818A81FA
S11311309B81611571058105910521F464E279EDC6
S11311408BE597E02DE133EF41E050E00E94E608A3
S113115049015A019B01AC01A7EAB1E40E940509C7
S11311606B017C01ACEEB4EFA50194010E9413095C
S1131170DC01CB018C0D9D1DAE1DBF1DB7FF03C04F
S11311800197A109B04888839983AA83BB839F7779
S1131190DF91CF91FF90EF90DF90CF90BF90AF9011
S11311A09F908F9008950E948A08089580E690E0A9
S11311B00E948A080895A0E0B0E0809360009093B4
S11311C06100A0936200B09363000895052E97FB1D
S11311D01EF400940E94FD0857FD07D00E941809D0
S11311E007FC03D04EF40C94FD08509540953095BF
S11311F021953F4F4F4F5F4F08959095809570957F
S113120061957F4F8F4F9F4F08950E943A09A59F84
S1131210900DB49F900DA49F800D911D11240895ED
S1131220B7FF0C9405090E940509821B930B0895CE
S1131230A1E21A2EAA1BBB1BFD010DC0AA1FBB1FD6
S1131240EE1FFF1FA217B307E407F50720F0A21B48
S1131250B30BE40BF50B661F771F881F991F1A94B5
S113126069F760957095809590959B01AC01BD01DF
S1131270CF010895A29FB001B39FC001A39F700D39
S1131280811D1124911DB29F700D811D1124911D8A
S10912900895F894FFCF5D
S113129601000000010107420F706C65617365204F
S11312A6677565737320746865006E756D62657223
S11312B63A00594F55204449444E27540043484F59
S11312C64F53452041204E554D4245520054484502
S11312D62056414C4944004E554D422057495448E6
S11312E6494E20313A313500594F5520574F4E005B
S10D12F6594F55204C4F53003000AF
S9030000FC
